{
    "contractName": "interact",
    "abi": [
        {
            "inputs": [
                {
                    "internalType": "address",
                    "name": "asset",
                    "type": "address"
                },
                {
                    "internalType": "uint256",
                    "name": "amount",
                    "type": "uint256"
                },
                {
                    "internalType": "uint256",
                    "name": "interestRateMode",
                    "type": "uint256"
                },
                {
                    "internalType": "uint16",
                    "name": "referralCode",
                    "type": "uint16"
                }
            ],
            "name": "iborrow",
            "outputs": [],
            "stateMutability": "nonpayable",
            "type": "function"
        },
        {
            "inputs": [
                {
                    "internalType": "address",
                    "name": "asset",
                    "type": "address"
                },
                {
                    "internalType": "uint256",
                    "name": "amount",
                    "type": "uint256"
                },
                {
                    "internalType": "uint256",
                    "name": "rateMode",
                    "type": "uint256"
                }
            ],
            "name": "irepay",
            "outputs": [],
            "stateMutability": "nonpayable",
            "type": "function"
        },
        {
            "inputs": [
                {
                    "internalType": "address",
                    "name": "_asset",
                    "type": "address"
                },
                {
                    "internalType": "uint256",
                    "name": "_amount",
                    "type": "uint256"
                },
                {
                    "internalType": "uint16",
                    "name": "_referralCode",
                    "type": "uint16"
                }
            ],
            "name": "isupply",
            "outputs": [],
            "stateMutability": "nonpayable",
            "type": "function"
        },
        {
            "inputs": [
                {
                    "internalType": "address",
                    "name": "asset",
                    "type": "address"
                },
                {
                    "internalType": "uint256",
                    "name": "amount",
                    "type": "uint256"
                },
                {
                    "internalType": "address",
                    "name": "to",
                    "type": "address"
                }
            ],
            "name": "iwithdraw",
            "outputs": [],
            "stateMutability": "nonpayable",
            "type": "function"
        },
        {
            "inputs": [
                {
                    "internalType": "address",
                    "name": "_asset",
                    "type": "address"
                }
            ],
            "name": "mybalance",
            "outputs": [
                {
                    "internalType": "uint256",
                    "name": "",
                    "type": "uint256"
                }
            ],
            "stateMutability": "view",
            "type": "function"
        }
    ],
    "bytecode": "608060405260008054737d2768de32b0b80b7a3454c06bdac94a69ddc7a96001600160a01b0319918216811790925560018054909116909117905534801561004657600080fd5b50610c43806100566000396000f3fe608060405234801561001057600080fd5b50600436106100575760003560e01c8063084525451461005c57806311d3f3611461007157806330ae82eb146100845780633c30625014610097578063551511fa146100bc575b600080fd5b61006f61006a366004610a20565b6100cf565b005b61006f61007f366004610a53565b61025b565b61006f610092366004610aa1565b61035e565b6100aa6100a5366004610ad4565b6105ea565b60405190815260200160405180910390f35b61006f6100ca366004610aef565b6107bc565b6040516323b872dd60e01b81523360048201523060248201526044810183905283906001600160a01b038216906323b872dd906064016020604051808303816000875af1158015610124573d6000803e3d6000fd5b505050506040513d601f19601f820116820180604052508101906101489190610b35565b61015157600080fd5b60005460405163095ea7b360e01b81526001600160a01b0391821660048201819052602482018690529183169063095ea7b3906044016020604051808303816000875af11580156101a6573d6000803e3d6000fd5b505050506040513d601f19601f820116820180604052508101906101ca9190610b35565b6101d357600080fd5b60405163573ade8160e01b81526001600160a01b038681166004830152602482018690526044820185905230606483015282169063573ade81906084016020604051808303816000875af115801561022f573d6000803e3d6000fd5b505050506040513d601f19601f820116820180604052508101906102539190610b57565b505050505050565b600054604051631a4ca37b60e21b81526001600160a01b038086166004830152602482018590523060448301528592169081906369328dec906064016020604051808303816000875af11580156102b6573d6000803e3d6000fd5b505050506040513d601f19601f820116820180604052508101906102da9190610b57565b5060405163a9059cbb60e01b81526001600160a01b0384811660048301526024820186905283169063a9059cbb906044016020604051808303816000875af115801561032a573d6000803e3d6000fd5b505050506040513d601f19601f8201168201806040525081019061034e9190610b35565b61035757600080fd5b5050505050565b6040805180820190915260048152636865726560e01b60208201528390610384906108b5565b6040516323b872dd60e01b8152336004820152306024820152604481018490526001600160a01b038216906323b872dd906064016020604051808303816000875af11580156103d7573d6000803e3d6000fd5b505050506040513d601f19601f820116820180604052508101906103fb9190610b35565b61044c5760405162461bcd60e51b815260206004820152601e60248201527f596f7520646f206e6f74206861766520656e6f7567682062616c616e6365000060448201526064015b60405180910390fd5b6040516370a0823160e01b81523060048201526104bd906001600160a01b038316906370a0823190602401602060405180830381865afa158015610494573d6000803e3d6000fd5b505050506040513d601f19601f820116820180604052508101906104b89190610b57565b6108fb565b60005460405163095ea7b360e01b81526001600160a01b0391821660048201819052602482018690529183169063095ea7b3906044016020604051808303816000875af1158015610512573d6000803e3d6000fd5b505050506040513d601f19601f820116820180604052508101906105369190610b35565b6105715760405162461bcd60e51b815260206004820152600c60248201526b139bdd08185c1c1c9bdd995960a21b6044820152606401610443565b60405163e8eda9df60e01b81526001600160a01b0386811660048301526024820186905230604483015261ffff8516606483015282169063e8eda9df90608401600060405180830381600087803b1580156105cb57600080fd5b505af11580156105df573d6000803e3d6000fd5b505050505050505050565b60008082905061061c6040518060400160405280600b81526020016a1515393ab73734b733951560a91b8152506108b5565b6106263033610940565b604080518082018252601081526f39b2b73232b939903130b630b731b29d60811b602082015290516370a0823160e01b815233600482015261074d91906001600160a01b038416906370a0823190602401602060405180830381865afa158015610694573d6000803e3d6000fd5b505050506040513d601f19601f820116820180604052508101906106b89190610b57565b604080518082018252601381527231b7b73a3930b1ba13b9903130b630b731b29d60691b602082015290516370a0823160e01b81523060048201526001600160a01b038616906370a0823190602401602060405180830381865afa158015610724573d6000803e3d6000fd5b505050506040513d601f19601f820116820180604052508101906107489190610b57565b610994565b6040516370a0823160e01b81523060048201526001600160a01b038216906370a0823190602401602060405180830381865afa158015610791573d6000803e3d6000fd5b505050506040513d601f19601f820116820180604052508101906107b59190610b57565b9392505050565b60005460405163a415bcad60e01b81526001600160a01b038087166004830152602482018690526044820185905261ffff8416606483015230608483015286921690819063a415bcad9060a401600060405180830381600087803b15801561082357600080fd5b505af1158015610837573d6000803e3d6000fd5b505060405163a9059cbb60e01b8152336004820152602481018890526001600160a01b038516925063a9059cbb91506044016020604051808303816000875af1158015610888573d6000803e3d6000fd5b505050506040513d601f19601f820116820180604052508101906108ac9190610b35565b61025357600080fd5b6108f8816040516024016108c99190610bbd565b60408051601f198184030181529190526020810180516001600160e01b031663104c13eb60e21b1790526109e3565b50565b6108f88160405160240161091191815260200190565b60408051601f198184030181529190526020810180516001600160e01b031663f5b1bba960e01b1790526109e3565b6040516001600160a01b038084166024830152821660448201526109909060640160408051601f198184030181529190526020810180516001600160e01b0316636d786a5560e11b1790526109e3565b5050565b6109dd848484846040516024016109ae9493929190610bd0565b60408051601f198184030181529190526020810180516001600160e01b031663a0c4b22560e01b1790526109e3565b50505050565b80516a636f6e736f6c652e6c6f67602083016000808483855afa5050505050565b80356001600160a01b0381168114610a1b57600080fd5b919050565b600080600060608486031215610a3557600080fd5b610a3e84610a04565b95602085013595506040909401359392505050565b600080600060608486031215610a6857600080fd5b610a7184610a04565b925060208401359150610a8660408501610a04565b90509250925092565b803561ffff81168114610a1b57600080fd5b600080600060608486031215610ab657600080fd5b610abf84610a04565b925060208401359150610a8660408501610a8f565b600060208284031215610ae657600080fd5b6107b582610a04565b60008060008060808587031215610b0557600080fd5b610b0e85610a04565b93506020850135925060408501359150610b2a60608601610a8f565b905092959194509250565b600060208284031215610b4757600080fd5b815180151581146107b557600080fd5b600060208284031215610b6957600080fd5b5051919050565b6000815180845260005b81811015610b9657602081850181015186830182015201610b7a565b81811115610ba8576000602083870101525b50601f01601f19169290920160200192915050565b6020815260006107b56020830184610b70565b608081526000610be36080830187610b70565b8560208401528281036040840152610bfb8186610b70565b9150508260608301529594505050505056fea26469706673582212202c5c0d3c060269a9d59bc111bb938dba0022d20c93b8c863d5dabe1181d4343964736f6c634300080b0033",
    "sourcePath": "c:/Users/hp/Desktop/assign/contracts/main.sol",
    "compiler": {
        "name": "solc",
        "version": "0.8.11+commit.d7f03943"
    },
    "functionHashes": {
        "iborrow(address,uint256,uint256,uint16)": "551511fa",
        "irepay(address,uint256,uint256)": "08452545",
        "isupply(address,uint256,uint16)": "30ae82eb",
        "iwithdraw(address,uint256,address)": "11d3f361",
        "mybalance(address)": "3c306250"
    },
    "gasEstimates": {
        "creation": {
            "codeDepositCost": "627800",
            "executionCost": "49139",
            "totalCost": "676939"
        },
        "external": {
            "iborrow(address,uint256,uint256,uint16)": "infinite",
            "irepay(address,uint256,uint256)": "infinite",
            "isupply(address,uint256,uint16)": "infinite",
            "iwithdraw(address,uint256,address)": "infinite",
            "mybalance(address)": "infinite"
        }
    }
}